:03000000020A569B
:0C0A5600787FE4F6D8FD758117020800D7
:100A460031323334353637383941424344454647E7
:0C0A62008F90C2A0D2A11209FBC2A122F9
:050A3500EF3395E0FE27
:0C0A3A008F90D2A0D2A11209FBC2A12211
:1009FB00E4FFFEE4FDFC0DBD00010CED64644C70E6
:0C0A0B00F50FBF00010EEF64324E70E7E3
:010A170022BC
:100A1800E4FFFEE4FDFC0DBD00010CBC03F8BDE8DD
:0C0A2800F50FBF00010EEF64644E70E794
:010A3400229F
:1008000078087C007D007BFF7A0A79467E007F10A5
:100810001209D57F387E00120A627F0C7E00120A10
:1008200062C2B0D2B1D2B2D2B3D2B4D2B5D2B620B3
:10083000B00B20B408AF08120A35120A1820B00B0A
:1008400020B508AF09120A35120A1820B00B20B6DD
:1008500008AF0A120A35120A18C2B1D2B0D2B2D207
:10086000B3D2B4D2B5D2B620B10B20B408AF0B12BC
:100870000A35120A1820B10B20B508AF0C120A3540
:10088000120A1820B10B20B608AF0D120A35120A51
:1008900018C2B2D2B1D2B0D2B3D2B4D2B5D2B6208D
:1008A000B20B20B408AF0E120A35120A1820B20B90
:1008B00020B508AF0F120A35120A1820B20B20B665
:1008C00008AF10120A35120A18C2B3D2B1D2B2D28E
:1008D000B0D2B4D2B5D2B620B30B20B408AF111247
:1008E0000A35120A1820B30B20B508AF12120A35C8
:1008F000120A1820B30B20B608AF13120A35120AD9
:0409000018E4FEFFFA
:0109040022D0
:10090500E709F608DFFA8046E709F208DFFA803ED4
:1009150088828C83E709F0A3DFFA8032E309F608C1
:10092500DFFA8078E309F208DFFA807088828C8329
:10093500E309F0A3DFFA806489828A83E0A3F608DD
:10094500DFFA805889828A83E0A3F208DFFA804CB7
:1009550080D280FA80C680D4806980F2803380108E
:1009650080A680EA809A80A880DA80E280CA8033F7
:1009750089828A83ECFAE493A3C8C582C8CCC5836F
:10098500CCF0A3C8C582C8CCC583CCDFE9DEE7803F
:100995000D89828A83E493A3F608DFF9ECFAA9F0BE
:1009A500EDFB2289828A83ECFAE0A3C8C582C8CC14
:1009B500C583CCF0A3C8C582C8CCC583CCDFEADE2D
:1009C500E880DB89828A83E493A3F208DFF980CC8F
:1009D50088F0EF60010E4E60C388F0ED2402B40488
:1009E5000050B9F582EB2402B4040050AF2323452F
:0609F500822390095573F6
:00000001FF
